:10089B004932430048656C6C6F205147004153430C
:1008AB0049493A00434F44453A000000000000001C
:1008BB00000000000000000000000000000000002D
:1008CB00000000000000000000000000000000001D
:1008DB0000000000000000000000008080C0C0C0CD
:1008EB00E0E0E0F0F0F0F0F0F0F0F0F0F0F0F0F02D
:1008FB00E0E0E0C0C0C0800000000000000000008D
:10090B0000000000000000000000000000000000DC
:10091B0000000000000000000000000000000000CC
:10092B0000000000000000000000000000000000BC
:10093B0000000000000000000000000000000000AC
:10094B00000000000000000000000000000000009C
:10095B0000000080E0F0F8FCFEFEFFFFFFFFFF7FD2
:10096B007F3F3F1F1F1F1F0F0F0F0F0F0F1F1F1F4C
:10097B003F3F3F7F7FFFFFFFFFFEFCF8F0E0C080B3
:10098B00000000000000000000000000000000005C
:10099B00000000000000000000000000000000004C
:1009AB00000000000000000000000000000000003C
:1009BB00000000000000000000000000000000002C
:1009CB00000000000000000000000000000000809C
:1009DB00F0FCFFFFFFFFFFFFFF3F0F0703010000CE
:1009EB0000000000000080808080808080800000FC
:1009FB000000000000000181C3E7FFFFFFFFFFFFC6
:100A0B00FFFCF08000000000000000000000000070
:100A1B0000000000000000000000000000000000CB
:100A2B0000000000000000000000000000000000BB
:100A3B0000000000000000000000000000000000AB
:100A4B000000000000000000000000000000E0FFBC
:100A5B00FFFFFFFFFFFFFF0700000000000000008B
:100A6B0000F0FCFEFFFFFFFFFFFFFFFFFFFFFFFF9D
:100A7B003E3C78787C7E7F7F7F7F7F7FFFFFFFFF11
:100A8B00FFFFFFFF0000000000000000000000005F
:100A9B00000000000000000000000000000000004B
:100AAB00000000000000000000000000000000003B
:100ABB00000000000000000000000000000000002B
:100ACB000000000000000000000000000000037F99
:100ADB00FFFFFFFFFFFFFFF0000000000000000022
:100AEB0000071F7F7FFFFFFFFFFFFFFFFFFFFFFFE2
:100AFB00000000000000000000000000FFFFFFFFEF
:100B0B00FFFFFF7F0000000000000000000000005E
:100B1B0000000000000000000000000000000000CA
:100B2B0000000000000000000000000000000000BA
:100B3B0000000000000000000000000000000000AA
:100B4B00000000000000000000000000000000009A
:100B5B00030F3F7FFFFFFFFFFFFCF8E0C0800000AB
:100B6B000000000000000001010101010101000073
:100B7B000000000000000000000000F0FFFFFF7FFE
:100B8B001F0F030000000000000000000000000029
:100B9B00000000000000000000000000000000004A
:100BAB00000000000000000000000000000000003A
:100BBB00000000000000000000000000000000002A
:100BCB00000000000000000000000000000000001A
:100BDB0000000000C1E3FFFFFFFFFFFFFFFFFFFF70
:100BEB00FEFEFCFCFCF8F8F8F8F8F8F8F8F8F8F862
:100BFB00FCFCFCFEFEFCFCFCFCF8F8FFFFFFFFFF1F
:100C0B00FFFFFFFFFF1F00000000000000000000BF
:100C1B0000000000000000000000000000000000C9
:100C2B0000000000000000000000000000000000B9
:100C3B0000000000000000000000000000000000A9
:100C4B000000000000000000000000000000000099
:100C5B000000000303030301010101000000000079
:100C6B00000000000000000000010101030303036A
:100C7B00070707070F0F0F0F0F0F0F0F0F0F0F0F99
:100C8B000F07070301000000000000000000000038
:100C9B000000000000000000000000000000000049
:0A0CAB00000000000000000000003F
:100E7000750820120CB5750C08750DFF750E0875F8
:100E80000FB57B80E4FDFF1210A87FE87E031212ED
:100E9000961211BD7BFF7A08799B750E10E4FDFF59
:100EA000121111E4FBFD7F1E120FAC7B01E4FD7FEC
:100EB00030120FAC7BFF7A08799F750E107D03E42A
:100EC000FF1211117BFF7A0879A8750E107D06E4D8
:100ED000FF1211117BFF7A0879AF750E107D067F26
:100EE0003F121111751510AB087D067F30120D955C
:100EF0000508E508D3947E4003750820E508FB7AD1
:100F000000750D03750E107D067F6712102E7F642D
:080F10007E00121296020E94FD
:100003000000000000000000002F000000000700B7
:10001300070000147F147F1400242A7F2A12006231
:1000230064081323003649552250000005030000DD
:1000330000001C224100000041221C000014083E65
:1000430008140008083E0808000000A0600000082B
:10005300080808080000606000000020100804027F
:10006300003E5149453E0000427F4000004261513D
:100073004946002141454B31001814127F100027D7
:1000830045454539003C4A4949300001710905039A
:1000930000364949493600064949291E00003636CB
:1000A300000000005636000000081422410000142E
:1000B300141414140000412214080002015109060B
:1000C30000324959513E007C1211127C007F49498C
:1000D3004936003E41414122007F4141221C007FBD
:1000E30049494941007F09090901003E4149497ACB
:1000F300007F0808087F0000417F41000020404145
:100103003F01007F08142241007F40404040007FB0
:10011300020C027F007F0408107F003E4141413EF4
:10012300007F09090906003E4151215E007F09193C
:1001330029460046494949310001017F0101003F39
:100143004040403F001F2040201F003F4038403FB9
:10015300006314081463000708700807006151491D
:10016300454300007F41410000552A552A550000B0
:1001730041417F000004020102040040404040402E
:10018300000001020400002054545478007F4844C6
:10019300443800384444442000384444487F0038FD
:1001A3005454541800087E0901020018A4A4A47C26
:1001B300007F080404780000447D400000408084F0
:1001C3007D00007F102844000000417F4000007C38
:1001D30004180478007C0804047800384444443844
:1001E30000FC242424180018242418FC007C080490
:1001F300040800485454542000043F444020003C69
:100203004040207C001C2040201C003C4030403CEF
:10021300004428102844001CA0A0A07C004464547F
:100223004C441414141414140000000000000000C3
:100233000000000000000000000000F800000000C3
:10024300000000333000000000100C06100C060004
:10025300000000000000000040C07840C07840006B
:10026300043F04043F040400007088FC08300000CD
:10027300001820FF211E0000F008F000E018000025
:1002830000211C031E211E0000F0088870000000DE
:100293001E2123241927211010160E000000000030
:1002A3000000000000000000000000E0180402004D
:1002B300000000071820400000020418E0000000BE
:1002C3000040201807000000404080F080404000BC
:1002D3000202010F01020200000000F00000000012
:1002E3000101011F010101000000000000000000E6
:1002F30080B070000000000000000000000000005B
:1003030000010101010101010000000000000000E3
:10031300003030000000000000000000806018047E
:10032300006018060100000000E010080810E0005B
:10033300000F102020100F00001010F80000000024
:100343000020203F2020000000700808088870006B
:1003530000302824222130000030088888483000EB
:100363000018202020110E000000C02010F800000B
:1003730000070424243F240000F8088888080800A4
:100383000019212020110E0000E0108888180000B9
:10039300000F112020110E0000380808C83808008B
:1003A3000000003F0000000000708808088870000B
:1003B300001C222121221C0000E010080810E0008C
:1003C3000000312222110F00000000C0C000000015
:1003D300000000303000000000000080000000003A
:1003E3000000806000000000000080402010080032
:1003F30000010204081020004040404040404000FB
:1004030004040404040404000008102040800000D5
:100413000020100804020100007048080808F000DA
:100423000000003036010000C030C828E810E000AA
:100433000718272423140B000000C038E000000035
:10044300203C23020227382008F88888887000009F
:10045300203F202020110E00C03008080808380073
:10046300071820202010080008F808080810E000EA
:10047300203F202020100F0008F88888E80810008B
:10048300203F20202320180008F88888E80810005F
:10049300203F200003000000C03008080838000097
:1004A30007182020221E020008F808000008F80898
:1004B300203F210101213F20000808F8080800001F
:1004C3000020203F2020000000000808F808080052
:1004D300C08080807F00000008F888C028180800CA
:1004E300203F20012638200008F808000000000003
:1004F300203F20202020300008F8F800F8F80800FA
:10050300203F003F003F200008F830C00008F808F3
:10051300203F200007183F00E01008080810E00003
:100523000F10202020100F0008F808080808F0001A
:10053300203F210101010000E01008080810E0003D
:100543000F18242438504F0008F8888888887000D2
:10055300203F2000030C3020007088080808380072
:100563000038202121221C00180808F80808180068
:100573000000203F2000000008F808000008F808E9
:10058300001F202020201F000878880000C838089A
:10059300000007380E010000F80800F80008F80012
:1005A300033C0700073C03000818688080681808AC
:1005B30020302C03032C30200838C800C83808002A
:1005C3000000203F2000000010080808C838080079
:1005D3002038262120201800000000FE020202001D
:1005E3000000007F40404000000C30C000000000CD
:1005F300000000010638C00000020202FE000000F5
:10060300004040407F00000000000402020204009A
:1006130000000000000000000000000000000000D7
:1006230080808080808080800002020400000000BF
:1006330000000000000000000000808080800000B7
:100643000019242222223F2008F8008080000000A5
:10065300003F112020110E00000000808080000068
:10066300000E112020201100000000808088F80077
:10067300000E112020103F200000808080800000A9
:10068300001F222222221300008080F0888888180D
:100693000020203F20200000000080808080800018
:1006A300006B94949493600008F8008080800000AD
:1006B300203F210000203F20008098980000000088
:1006C3000020203F202000000000008098980000B8
:1006D30000C08080807F000008F8000080808000D8
:1006E300203F24022D302000000808F800000000FD
:1006F3000020203F202000008080808080808000B8
:10070300203F20003F20003F808000808080000049
:10071300203F210000203F200000808080800000D7
:10072300001F202020201F00808000808000000008
:1007330080FFA12020110E00000000808080800037
:10074300000E112020A0FF80808080008080800028
:1007530020203F2120000100000080808080800055
:100763000033242424241900008080E080800000CA
:100773000000001F20200000808000000080800017
:10078300001F202020103F20808080000080808078
:1007930000010E3008060100808000800080808008
:1007A3000F300C030C300F0000808000808080002D
:1007B3000020312E0E312000808080000080808058
:1007C30080818E7018060100008080808080800008
:1007D3000021302C2221300000000000807C020226
:1007E30000000000003F404000000000FF00000048
:1007F30000000000FF0000000002027C80000000F7
:100803000040403F00000000000601010202040412
:1008130000000000000000001010F01F10F08082A4
:100823008282E2928AC6800000000000000000007D
:1008330000000000000000004022150814630000BF
:1008430040807F0000000000000000000000000066
:1008530000000000000000000434C404C43E44202F
:10086300F84F49FA484C080000000000000000005F
:10087300000000000000000020100C03041800001A
:10088300FF22223F2232200000000000000000006F
:0808930000000000000000005D
:10127800D3EF9400EE940040147D657C18ED1D704A
:0D128800011CED4C70F7EF1F70E61E80E3B7
:011295002236
:10129600EF1FAA0670011E4A600FE4FDEDC3947BA2
:0912A6007480948050EA0D80F37D
:0112AF00221C
:09132800D290D291C291C2902230
:07133100D290C291D291227B
:0B12F0001211F61212FBAF041211F6EF
:0512FB00D290C2902218
:0711EF00AC071213287F7802
:1011F600C290E4FEEEC3940874809480501BAD0741
:10120600530580ED64807004D2918002C291EF256F
:09121600E0FFD290C2900E80DBD3
:01121F0022AC
:0E1300001211EF1212FBE4FF1212F002133171
:0E130E001211EF1212FB7F401212F002133187
:10122000EF24B0FFEE33FEE4FDFC12123BE4FDFCC4
:0B123000FFFE12123B7F10E4FDFCFEED
:10123B00AB07AA06ED4C600302130EAF03121300AB
:01124B002280
:021155008F17F2
:10115700E4F9E9FF7E00C394087480948050231259
:101167001220E4F518C3E518948074809480500F1A
:10117700AF177E007D017C0012123B051880E6093F
:0211870080D016
:011189002243
:10124C00A907ED24B0FFE433FEE4FDFC12123BE9E8
:10125C0054F0C4540F7E004410FFE4FDFC12123B0A
:0C126C00E9540FFF7E00E4FDFC02123B81
:1012C8007F8D121237E4FDFC7F14FE12123BE4FD01
:0712D800FC7FAFFE02123B98
:1012DF00E4FDFC7F8D121231E4FDFC7FAEFE0212A5
:0112EF003BC3
:1011BD00E4F9E9FF7E00C3940874809480502212F4
:1011CD001220E4F509C3E509948074809480500ED3
:1011DD007D017C00E4FFFE12123B050980E70980CA
:0111ED00D130
:0111EE0022DE
:10118A00E4F9E9FF7E00C394087480948050231226
:10119A001220E4F519C3E519948074809480500FE5
:1011AA007D017C007F017E0012123B051980E60951
:0211BA0080D0E3
:0111BC002210
:040D95008F128D1319
:100D9900E4F516F9EB24E0F516D3EF947F7480940B
:100DA900804007E4F51205130513E5156410707A00
:100DB900AD13AF1212124CE4F9E9C394087480948C
:100DC90080502975F010E516A429F582E435F0F56F
:100DD90083E582242BF582E5833402F583E493FFCE
:100DE9007E007D017C0012123B0980CDE51304FDD4
:100DF900AF1212124CE4F9E9C3940874809480503C
:100E09006575F010E516A429F582E435F0F583E55A
:100E1900822433F582E5833402F583E493FF7E006F
:100E29007D017C0012123B0980CDAD13AF12121265
:100E39004CE4F9E9C3940674809480502975F0064E
:100E4900E516A42403F582E5F03400F583E582294B
:100E5900F582E43583F583E493FF7E007D017C0010
:060E690012123B0980CDCE
:010E6F002260
:0412B0008F12A905EB
:1012B4007F017E00AD0119ED6009AD127C00120FB3
:0312C4004580F171
:0112C7002204
:08102E008F098D0A8A0B8B0C5F
:10103600E4F511F50FE50FC3950D5065C3E50D9564
:101046000F14FD7F0A1212B0AC0BAD0CCFCDCFCE74
:10105600CCCE120F577C007D0A120F578D10E5116A
:101066007023E50D14FFE50FC39F5019E5107012AC
:10107600E50EC313850FF0A42509FF850E157B2009
:101086008016751101E50EC313850FF0A42509FF1F
:10109600E5102430FB850E15AD0A120D95050F805F
:0110A60094B5
:0110A7002226
:0A1111008F098D0A8B0B8A0C890DE3
:10111B00E4F50FAB0BAA0CA90D850F82758300129A
:10112B000F18FB6024850E15AD0AAF09120D9574CF
:10113B00082509F509D39478748094804007E4F569
:09114B0009050A050A050F80CA16
:011154002278
:060FAC008F098D0A8B0B7A
:100FB200E4F50C12124CE4F9E9C3941074809480A5
:100FC200502AE50B75F040A4241BF582E43408F5A1
:100FD20083E58229F582E43583F583E493FF7E007D
:100FE2007D017C0012123B050C0980CCE50A04FD50
:100FF200AF0912124CE4F9E9C39410748094805042
:101002002AE50B75F040A4243BF582E43408F5830D
:10101200E58229F582E43583F583E493FF7E007D42
:0B102200017C0012123B050C0980CC81
:01102D0022A0
:0410A8008F098B0B16
:1010AC00E4F510F511E50C5407700BE50C13131354
:1010BC00541FF513800AE50C131313541F04F51376
:1010CC008D13E513C3950C503BAD13AF0912124CA5
:1010DC00850912E512C3950B5026AB0DAA0EA90F6C
:1010EC000511E511AE107002051014F5828E8312F5
:1010FC000F18FF7E007D017C0012123B051280D37D
:04110C00051380BE89
:0111100022BC
:100CB500E4FDFC7FAEFE12122AE4FDFC7F40FE122D
:100CC500123BE4FDFC7FB0FE12123BE4FDFC7F818C
:100CD500FE12123BE4FDFC7FFFFE12123BE4FDFC1D
:100CE5007FA1FE12123BE4FDFC7FA6FE12123BE43F
:100CF500FDFC7FA8FE12123BE4FDFC7F3FFE1212B5
:100D05003BE4FDFC7FC8FE12123BE4FDFC7FD3FEF5
:100D150012123BE4FDFCFFFE12123BE4FDFC7FD505
:100D2500FE12123BE4FDFC7F80FE12123BE4FDFC4B
:100D35007FD8FE12123BE4FDFC7F05FE12123BE458
:100D4500FDFC7FD9FE12123BE4FDFC7FF1FE121281
:100D55003BE4FDFC7FDAFE12123BE4FDFC7F12FE54
:100D650012123BE4FDFC7FDBFE12123BE4FDFC7F2F
:100D750030FE12123BE4FDFC7F8DFE12123BE4FDBA
:100D8500FC7F14FE12123BE4FDFC7FAFFE02123B1A
:0300000002131CCC
:0C131C00787FE4F6D8FD758119020E7090
:100F1800BB010CE58229F582E5833AF583E022508E
:100F280006E92582F8E622BBFE06E92582F8E222D8
:0D0F3800E58229F582E5833AF583E49322F2
:100F4500EF8DF0A4A8F0CF8CF0A428CE8DF0A42EC0
:020F5500FE227A
:100F5700BC000BBE0029EF8DF084FFADF022E4CC7E
:100F6700F875F008EF2FFFEE33FEEC33FCEE9DEC47
:100F7700984005FCEE9DFE0FD5F0E9E4CEFD22ED8D
:100F8700F8F5F0EE8420D21CFEADF075F008EF2FD7
:100F9700FFED33FD4007985006D5F0F222C398FDC8
:050FA7000FD5F0EA2265
:00000001FF
